8=FIX.4.4|9=93|35=A|34=1|49=[YOUR ACCESS KEY]|52=20141221-18:13:16.371|56=BTCC-FIX-SERVER|98=0|108=30|141=Y|10=065|8=FIX.4.4|9=196|35=V|34=2|49=[YOUR ACCESS KEY]|52=20141221-18:13:19.338|56=BTCC-FIX-SERVER|262=123|263=1|264=0|146=1|55=BTCCNY|267=13|269=0|269=1|269=2|269=3|269=4|269=5|269=6|269=7|269=8|269=9|269=A|269=B|269=C|10=169|8=FIX.4.4|9=196|35=V|34=3|49=[YOUR ACCESS KEY]|52=20141221-18:13:22.340|56=BTCC-FIX-SERVER|262=123|263=1|264=0|146=1|55=BTCCNY|267=13|269=0|269=1|269=2|269=3|269=4|269=5|269=6|269=7|269=8|269=9|269=A|269=B|269=C|10=157|8=FIX.4.4|9=196|35=V|34=4|49=[YOUR ACCESS KEY]|52=20141221-18:13:25.341|56=BTCC-FIX-SERVER|262=123|263=1|264=0|146=1|55=BTCCNY|267=13|269=0|269=1|269=2|269=3|269=4|269=5|269=6|269=7|269=8|269=9|269=A|269=B|269=C|10=162|8=FIX.4.4|9=196|35=V|34=5|49=[YOUR ACCESS KEY]|52=20141221-18:13:28.342|56=BTCC-FIX-SERVER|262=123|263=1|264=0|146=1|55=BTCCNY|267=13|269=0|269=1|269=2|269=3|269=4|269=5|269=6|269=7|269=8|269=9|269=A|269=B|269=C|10=167|8=FIX.4.4|9=196|35=V|34=6|49=[YOUR ACCESS KEY]|52=20141221-18:13:31.345|56=BTCC-FIX-SERVER|262=123|263=1|264=0|146=1|55=BTCCNY|267=13|269=0|269=1|269=2|269=3|269=4|269=5|269=6|269=7|269=8|269=9|269=A|269=B|269=C|10=165|8=FIX.4.4|9=196|35=V|34=7|49=[YOUR ACCESS KEY]|52=20141221-18:13:34.348|56=BTCC-FIX-SERVER|262=123|263=1|264=0|146=1|55=BTCCNY|267=13|269=0|269=1|269=2|269=3|269=4|269=5|269=6|269=7|269=8|269=9|269=A|269=B|269=C|10=172|8=FIX.4.4|9=196|35=V|34=8|49=[YOUR ACCESS KEY]|52=20141221-18:13:37.351|56=BTCC-FIX-SERVER|262=123|263=1|264=0|146=1|55=BTCCNY|267=13|269=0|269=1|269=2|269=3|269=4|269=5|269=6|269=7|269=8|269=9|269=A|269=B|269=C|10=170|8=FIX.4.4|9=196|35=V|34=9|49=[YOUR ACCESS KEY]|52=20141221-18:13:40.355|56=BTCC-FIX-SERVER|262=123|263=1|264=0|146=1|55=BTCCNY|267=13|269=0|269=1|269=2|269=3|269=4|269=5|269=6|269=7|269=8|269=9|269=A|269=B|269=C|10=169|8=FIX.4.4|9=197|35=V|34=10|49=[YOUR ACCESS KEY]|52=20141221-18:13:43.358|56=BTCC-FIX-SERVER|262=123|263=1|264=0|146=1|55=BTCCNY|267=13|269=0|269=1|269=2|269=3|269=4|269=5|269=6|269=7|269=8|269=9|269=A|269=B|269=C|10=216|8=FIX.4.4|9=197|35=V|34=11|49=[YOUR ACCESS KEY]|52=20141221-18:13:46.359|56=BTCC-FIX-SERVER|262=123|263=1|264=0|146=1|55=BTCCNY|267=13|269=0|269=1|269=2|269=3|269=4|269=5|269=6|269=7|269=8|269=9|269=A|269=B|269=C|10=221|8=FIX.4.4|9=197|35=V|34=12|49=[YOUR ACCESS KEY]|52=20141221-18:13:49.362|56=BTCC-FIX-SERVER|262=123|263=1|264=0|146=1|55=BTCCNY|267=13|269=0|269=1|269=2|269=3|269=4|269=5|269=6|269=7|269=8|269=9|269=A|269=B|269=C|10=219|8=FIX.4.4|9=197|35=V|34=13|49=[YOUR ACCESS KEY]|52=20141221-18:13:52.365|56=BTCC-FIX-SERVER|262=123|263=1|264=0|146=1|55=BTCCNY|267=13|269=0|269=1|269=2|269=3|269=4|269=5|269=6|269=7|269=8|269=9|269=A|269=B|269=C|10=217|8=FIX.4.4|9=197|35=V|34=14|49=[YOUR ACCESS KEY]|52=20141221-18:13:55.366|56=BTCC-FIX-SERVER|262=123|263=1|264=0|146=1|55=BTCCNY|267=13|269=0|269=1|269=2|269=3|269=4|269=5|269=6|269=7|269=8|269=9|269=A|269=B|269=C|10=222|8=FIX.4.4|9=197|35=V|34=15|49=[YOUR ACCESS KEY]|52=20141221-18:13:58.368|56=BTCC-FIX-SERVER|262=123|263=1|264=0|146=1|55=BTCCNY|267=13|269=0|269=1|269=2|269=3|269=4|269=5|269=6|269=7|269=8|269=9|269=A|269=B|269=C|10=228|8=FIX.4.4|9=197|35=V|34=16|49=[YOUR ACCESS KEY]|52=20141221-18:14:01.371|56=BTCC-FIX-SERVER|262=123|263=1|264=0|146=1|55=BTCCNY|267=13|269=0|269=1|269=2|269=3|269=4|269=5|269=6|269=7|269=8|269=9|269=A|269=B|269=C|10=212|8=FIX.4.4|9=197|35=V|34=17|49=[YOUR ACCESS KEY]|52=20141221-18:14:04.373|56=BTCC-FIX-SERVER|262=123|263=1|264=0|146=1|55=BTCCNY|267=13|269=0|269=1|269=2|269=3|269=4|269=5|269=6|269=7|269=8|269=9|269=A|269=B|269=C|10=218|8=FIX.4.4|9=197|35=V|34=18|49=[YOUR ACCESS KEY]|52=20141221-18:14:07.376|56=BTCC-FIX-SERVER|262=123|263=1|264=0|146=1|55=BTCCNY|267=13|269=0|269=1|269=2|269=3|269=4|269=5|269=6|269=7|269=8|269=9|269=A|269=B|269=C|10=225|8=FIX.4.4|9=197|35=V|34=19|49=[YOUR ACCESS KEY]|52=20141221-18:14:10.379|56=BTCC-FIX-SERVER|262=123|263=1|264=0|146=1|55=BTCCNY|267=13|269=0|269=1|269=2|269=3|269=4|269=5|269=6|269=7|269=8|269=9|269=A|269=B|269=C|10=223|8=FIX.4.4|9=197|35=V|34=20|49=[YOUR ACCESS KEY]|52=20141221-18:14:13.382|56=BTCC-FIX-SERVER|262=123|263=1|264=0|146=1|55=BTCCNY|267=13|269=0|269=1|269=2|269=3|269=4|269=5|269=6|269=7|269=8|269=9|269=A|269=B|269=C|10=212|8=FIX.4.4|9=197|35=V|34=21|49=[YOUR ACCESS KEY]|52=20141221-18:14:16.385|56=BTCC-FIX-SERVER|262=123|263=1|264=0|146=1|55=BTCCNY|267=13|269=0|269=1|269=2|269=3|269=4|269=5|269=6|269=7|269=8|269=9|269=A|269=B|269=C|10=219|8=FIX.4.4|9=197|35=V|34=22|49=[YOUR ACCESS KEY]|52=20141221-18:14:19.387|56=BTCC-FIX-SERVER|262=123|263=1|264=0|146=1|55=BTCCNY|267=13|269=0|269=1|269=2|269=3|269=4|269=5|269=6|269=7|269=8|269=9|269=A|269=B|269=C|10=225|8=FIX.4.4|9=197|35=V|34=23|49=[YOUR ACCESS KEY]|52=20141221-18:14:22.390|56=BTCC-FIX-SERVER|262=123|263=1|264=0|146=1|55=BTCCNY|267=13|269=0|269=1|269=2|269=3|269=4|269=5|269=6|269=7|269=8|269=9|269=A|269=B|269=C|10=214|8=FIX.4.4|9=197|35=V|34=24|49=[YOUR ACCESS KEY]|52=20141221-18:14:25.393|56=BTCC-FIX-SERVER|262=123|263=1|264=0|146=1|55=BTCCNY|267=13|269=0|269=1|269=2|269=3|269=4|269=5|269=6|269=7|269=8|269=9|269=A|269=B|269=C|10=221|8=FIX.4.4|9=197|35=V|34=25|49=[YOUR ACCESS KEY]|52=20141221-18:14:28.396|56=BTCC-FIX-SERVER|262=123|263=1|264=0|146=1|55=BTCCNY|267=13|269=0|269=1|269=2|269=3|269=4|269=5|269=6|269=7|269=8|269=9|269=A|269=B|269=C|10=228|8=FIX.4.4|9=197|35=V|34=26|49=[YOUR ACCESS KEY]|52=20141221-18:14:31.399|56=BTCC-FIX-SERVER|262=123|263=1|264=0|146=1|55=BTCCNY|267=13|269=0|269=1|269=2|269=3|269=4|269=5|269=6|269=7|269=8|269=9|269=A|269=B|269=C|10=226|8=FIX.4.4|9=197|35=V|34=27|49=[YOUR ACCESS KEY]|52=20141221-18:14:34.402|56=BTCC-FIX-SERVER|262=123|263=1|264=0|146=1|55=BTCCNY|267=13|269=0|269=1|269=2|269=3|269=4|269=5|269=6|269=7|269=8|269=9|269=A|269=B|269=C|10=215|8=FIX.4.4|9=197|35=V|34=28|49=[YOUR ACCESS KEY]|52=20141221-18:14:37.406|56=BTCC-FIX-SERVER|262=123|263=1|264=0|146=1|55=BTCCNY|267=13|269=0|269=1|269=2|269=3|269=4|269=5|269=6|269=7|269=8|269=9|269=A|269=B|269=C|10=223|8=FIX.4.4|9=197|35=V|34=29|49=[YOUR ACCESS KEY]|52=20141221-18:14:40.409|56=BTCC-FIX-SERVER|262=123|263=1|264=0|146=1|55=BTCCNY|267=13|269=0|269=1|269=2|269=3|269=4|269=5|269=6|269=7|269=8|269=9|269=A|269=B|269=C|10=221|8=FIX.4.4|9=197|35=V|34=30|49=[YOUR ACCESS KEY]|52=20141221-18:14:43.412|56=BTCC-FIX-SERVER|262=123|263=1|264=0|146=1|55=BTCCNY|267=13|269=0|269=1|269=2|269=3|269=4|269=5|269=6|269=7|269=8|269=9|269=A|269=B|269=C|10=210|8=FIX.4.4|9=197|35=V|34=31|49=[YOUR ACCESS KEY]|52=20141221-18:14:46.415|56=BTCC-FIX-SERVER|262=123|263=1|264=0|146=1|55=BTCCNY|267=13|269=0|269=1|269=2|269=3|269=4|269=5|269=6|269=7|269=8|269=9|269=A|269=B|269=C|10=217|8=FIX.4.4|9=197|35=V|34=32|49=[YOUR ACCESS KEY]|52=20141221-18:14:49.417|56=BTCC-FIX-SERVER|262=123|263=1|264=0|146=1|55=BTCCNY|267=13|269=0|269=1|269=2|269=3|269=4|269=5|269=6|269=7|269=8|269=9|269=A|269=B|269=C|10=223|8=FIX.4.4|9=197|35=V|34=33|49=[YOUR ACCESS KEY]|52=20141221-18:14:52.421|56=BTCC-FIX-SERVER|262=123|263=1|264=0|146=1|55=BTCCNY|267=13|269=0|269=1|269=2|269=3|269=4|269=5|269=6|269=7|269=8|269=9|269=A|269=B|269=C|10=213|8=FIX.4.4|9=197|35=V|34=34|49=[YOUR ACCESS KEY]|52=20141221-18:14:55.424|56=BTCC-FIX-SERVER|262=123|263=1|264=0|146=1|55=BTCCNY|267=13|269=0|269=1|269=2|269=3|269=4|269=5|269=6|269=7|269=8|269=9|269=A|269=B|269=C|10=220|8=FIX.4.4|9=197|35=V|34=35|49=[YOUR ACCESS KEY]|52=20141221-18:14:58.427|56=BTCC-FIX-SERVER|262=123|263=1|264=0|146=1|55=BTCCNY|267=13|269=0|269=1|269=2|269=3|269=4|269=5|269=6|269=7|269=8|269=9|269=A|269=B|269=C|10=227|8=FIX.4.4|9=197|35=V|34=36|49=[YOUR ACCESS KEY]|52=20141221-18:15:01.430|56=BTCC-FIX-SERVER|262=123|263=1|264=0|146=1|55=BTCCNY|267=13|269=0|269=1|269=2|269=3|269=4|269=5|269=6|269=7|269=8|269=9|269=A|269=B|269=C|10=211|8=FIX.4.4|9=197|35=V|34=37|49=[YOUR ACCESS KEY]|52=20141221-18:15:04.432|56=BTCC-FIX-SERVER|262=123|263=1|264=0|146=1|55=BTCCNY|267=13|269=0|269=1|269=2|269=3|269=4|269=5|269=6|269=7|269=8|269=9|269=A|269=B|269=C|10=217|8=FIX.4.4|9=197|35=V|34=38|49=[YOUR ACCESS KEY]|52=20141221-18:15:07.436|56=BTCC-FIX-SERVER|262=123|263=1|264=0|146=1|55=BTCCNY|267=13|269=0|269=1|269=2|269=3|269=4|269=5|269=6|269=7|269=8|269=9|269=A|269=B|269=C|10=225|8=FIX.4.4|9=197|35=V|34=39|49=[YOUR ACCESS KEY]|52=20141221-18:15:10.439|56=BTCC-FIX-SERVER|262=123|263=1|264=0|146=1|55=BTCCNY|267=13|269=0|269=1|269=2|269=3|269=4|269=5|269=6|269=7|269=8|269=9|269=A|269=B|269=C|10=223|8=FIX.4.4|9=197|35=V|34=40|49=[YOUR ACCESS KEY]|52=20141221-18:15:13.442|56=BTCC-FIX-SERVER|262=123|263=1|264=0|146=1|55=BTCCNY|267=13|269=0|269=1|269=2|269=3|269=4|269=5|269=6|269=7|269=8|269=9|269=A|269=B|269=C|10=212|8=FIX.4.4|9=197|35=V|34=41|49=[YOUR ACCESS KEY]|52=20141221-18:15:16.445|56=BTCC-FIX-SERVER|262=123|263=1|264=0|146=1|55=BTCCNY|267=13|269=0|269=1|269=2|269=3|269=4|269=5|269=6|269=7|269=8|269=9|269=A|269=B|269=C|10=219|8=FIX.4.4|9=197|35=V|34=42|49=[YOUR ACCESS KEY]|52=20141221-18:15:19.447|56=BTCC-FIX-SERVER|262=123|263=1|264=0|146=1|55=BTCCNY|267=13|269=0|269=1|269=2|269=3|269=4|269=5|269=6|269=7|269=8|269=9|269=A|269=B|269=C|10=225|8=FIX.4.4|9=197|35=V|34=43|49=[YOUR ACCESS KEY]|52=20141221-18:15:22.449|56=BTCC-FIX-SERVER|262=123|263=1|264=0|146=1|55=BTCCNY|267=13|269=0|269=1|269=2|269=3|269=4|269=5|269=6|269=7|269=8|269=9|269=A|269=B|269=C|10=222|8=FIX.4.4|9=197|35=V|34=44|49=[YOUR ACCESS KEY]|52=20141221-18:15:25.452|56=BTCC-FIX-SERVER|262=123|263=1|264=0|146=1|55=BTCCNY|267=13|269=0|269=1|269=2|269=3|269=4|269=5|269=6|269=7|269=8|269=9|269=A|269=B|269=C|10=220|8=FIX.4.4|9=197|35=V|34=45|49=[YOUR ACCESS KEY]|52=20141221-18:15:28.454|56=BTCC-FIX-SERVER|262=123|263=1|264=0|146=1|55=BTCCNY|267=13|269=0|269=1|269=2|269=3|269=4|269=5|269=6|269=7|269=8|269=9|269=A|269=B|269=C|10=226|8=FIX.4.4|9=197|35=V|34=46|49=[YOUR ACCESS KEY]|52=20141221-18:15:31.456|56=BTCC-FIX-SERVER|262=123|263=1|264=0|146=1|55=BTCCNY|267=13|269=0|269=1|269=2|269=3|269=4|269=5|269=6|269=7|269=8|269=9|269=A|269=B|269=C|10=223|8=FIX.4.4|9=197|35=V|34=47|49=[YOUR ACCESS KEY]|52=20141221-18:15:34.458|56=BTCC-FIX-SERVER|262=123|263=1|264=0|146=1|55=BTCCNY|267=13|269=0|269=1|269=2|269=3|269=4|269=5|269=6|269=7|269=8|269=9|269=A|269=B|269=C|10=229|8=FIX.4.4|9=197|35=V|34=48|49=[YOUR ACCESS KEY]|52=20141221-18:15:37.462|56=BTCC-FIX-SERVER|262=123|263=1|264=0|146=1|55=BTCCNY|267=13|269=0|269=1|269=2|269=3|269=4|269=5|269=6|269=7|269=8|269=9|269=A|269=B|269=C|10=228|8=FIX.4.4|9=197|35=V|34=49|49=[YOUR ACCESS KEY]|52=20141221-18:15:40.464|56=BTCC-FIX-SERVER|262=123|263=1|264=0|146=1|55=BTCCNY|267=13|269=0|269=1|269=2|269=3|269=4|269=5|269=6|269=7|269=8|269=9|269=A|269=B|269=C|10=225|8=FIX.4.4|9=197|35=V|34=50|49=[YOUR ACCESS KEY]|52=20141221-18:15:43.467|56=BTCC-FIX-SERVER|262=123|263=1|264=0|146=1|55=BTCCNY|267=13|269=0|269=1|269=2|269=3|269=4|269=5|269=6|269=7|269=8|269=9|269=A|269=B|269=C|10=223|8=FIX.4.4|9=197|35=V|34=51|49=[YOUR ACCESS KEY]|52=20141221-18:15:46.470|56=BTCC-FIX-SERVER|262=123|263=1|264=0|146=1|55=BTCCNY|267=13|269=0|269=1|269=2|269=3|269=4|269=5|269=6|269=7|269=8|269=9|269=A|269=B|269=C|10=221|8=FIX.4.4|9=197|35=V|34=52|49=[YOUR ACCESS KEY]|52=20141221-18:15:49.472|56=BTCC-FIX-SERVER|262=123|263=1|264=0|146=1|55=BTCCNY|267=13|269=0|269=1|269=2|269=3|269=4|269=5|269=6|269=7|269=8|269=9|269=A|269=B|269=C|10=227|8=FIX.4.4|9=197|35=V|34=53|49=[YOUR ACCESS KEY]|52=20141221-18:15:52.475|56=BTCC-FIX-SERVER|262=123|263=1|264=0|146=1|55=BTCCNY|267=13|269=0|269=1|269=2|269=3|269=4|269=5|269=6|269=7|269=8|269=9|269=A|269=B|269=C|10=225|8=FIX.4.4|9=197|35=V|34=54|49=[YOUR ACCESS KEY]|52=20141221-18:15:55.476|56=BTCC-FIX-SERVER|262=123|263=1|264=0|146=1|55=BTCCNY|267=13|269=0|269=1|269=2|269=3|269=4|269=5|269=6|269=7|269=8|269=9|269=A|269=B|269=C|10=230|8=FIX.4.4|9=197|35=V|34=55|49=[YOUR ACCESS KEY]|52=20141221-18:15:58.478|56=BTCC-FIX-SERVER|262=123|263=1|264=0|146=1|55=BTCCNY|267=13|269=0|269=1|269=2|269=3|269=4|269=5|269=6|269=7|269=8|269=9|269=A|269=B|269=C|10=236|8=FIX.4.4|9=197|35=V|34=56|49=[YOUR ACCESS KEY]|52=20141221-18:16:01.480|56=BTCC-FIX-SERVER|262=123|263=1|264=0|146=1|55=BTCCNY|267=13|269=0|269=1|269=2|269=3|269=4|269=5|269=6|269=7|269=8|269=9|269=A|269=B|269=C|10=219|8=FIX.4.4|9=197|35=V|34=57|49=[YOUR ACCESS KEY]|52=20141221-18:16:04.483|56=BTCC-FIX-SERVER|262=123|263=1|264=0|146=1|55=BTCCNY|267=13|269=0|269=1|269=2|269=3|269=4|269=5|269=6|269=7|269=8|269=9|269=A|269=B|269=C|10=226|8=FIX.4.4|9=197|35=V|34=58|49=[YOUR ACCESS KEY]|52=20141221-18:16:07.484|56=BTCC-FIX-SERVER|262=123|263=1|264=0|146=1|55=BTCCNY|267=13|269=0|269=1|269=2|269=3|269=4|269=5|269=6|269=7|269=8|269=9|269=A|269=B|269=C|10=231|8=FIX.4.4|9=197|35=V|34=59|49=[YOUR ACCESS KEY]|52=20141221-18:16:10.487|56=BTCC-FIX-SERVER|262=123|263=1|264=0|146=1|55=BTCCNY|267=13|269=0|269=1|269=2|269=3|269=4|269=5|269=6|269=7|269=8|269=9|269=A|269=B|269=C|10=229|8=FIX.4.4|9=197|35=V|34=60|49=[YOUR ACCESS KEY]|52=20141221-18:16:13.488|56=BTCC-FIX-SERVER|262=123|263=1|264=0|146=1|55=BTCCNY|267=13|269=0|269=1|269=2|269=3|269=4|269=5|269=6|269=7|269=8|269=9|269=A|269=B|269=C|10=225|8=FIX.4.4|9=197|35=V|34=61|49=[YOUR ACCESS KEY]|52=20141221-18:16:16.491|56=BTCC-FIX-SERVER|262=123|263=1|264=0|146=1|55=BTCCNY|267=13|269=0|269=1|269=2|269=3|269=4|269=5|269=6|269=7|269=8|269=9|269=A|269=B|269=C|10=223|8=FIX.4.4|9=197|35=V|34=62|49=[YOUR ACCESS KEY]|52=20141221-18:16:19.493|56=BTCC-FIX-SERVER|262=123|263=1|264=0|146=1|55=BTCCNY|267=13|269=0|269=1|269=2|269=3|269=4|269=5|269=6|269=7|269=8|269=9|269=A|269=B|269=C|10=229|8=FIX.4.4|9=197|35=V|34=63|49=[YOUR ACCESS KEY]|52=20141221-18:16:22.496|56=BTCC-FIX-SERVER|262=123|263=1|264=0|146=1|55=BTCCNY|267=13|269=0|269=1|269=2|269=3|269=4|269=5|269=6|269=7|269=8|269=9|269=A|269=B|269=C|10=227|8=FIX.4.4|9=197|35=V|34=64|49=[YOUR ACCESS KEY]|52=20141221-18:16:25.498|56=BTCC-FIX-SERVER|262=123|263=1|264=0|146=1|55=BTCCNY|267=13|269=0|269=1|269=2|269=3|269=4|269=5|269=6|269=7|269=8|269=9|269=A|269=B|269=C|10=233|8=FIX.4.4|9=197|35=V|34=65|49=[YOUR ACCESS KEY]|52=20141221-18:16:28.501|56=BTCC-FIX-SERVER|262=123|263=1|264=0|146=1|55=BTCCNY|267=13|269=0|269=1|269=2|269=3|269=4|269=5|269=6|269=7|269=8|269=9|269=A|269=B|269=C|10=222|8=FIX.4.4|9=197|35=V|34=66|49=[YOUR ACCESS KEY]|52=20141221-18:16:31.503|56=BTCC-FIX-SERVER|262=123|263=1|264=0|146=1|55=BTCCNY|267=13|269=0|269=1|269=2|269=3|269=4|269=5|269=6|269=7|269=8|269=9|269=A|269=B|269=C|10=219|8=FIX.4.4|9=197|35=V|34=67|49=[YOUR ACCESS KEY]|52=20141221-18:16:34.506|56=BTCC-FIX-SERVER|262=123|263=1|264=0|146=1|55=BTCCNY|267=13|269=0|269=1|269=2|269=3|269=4|269=5|269=6|269=7|269=8|269=9|269=A|269=B|269=C|10=226|8=FIX.4.4|9=197|35=V|34=68|49=[YOUR ACCESS KEY]|52=20141221-18:16:37.508|56=BTCC-FIX-SERVER|262=123|263=1|264=0|146=1|55=BTCCNY|267=13|269=0|269=1|269=2|269=3|269=4|269=5|269=6|269=7|269=8|269=9|269=A|269=B|269=C|10=232|8=FIX.4.4|9=197|35=V|34=69|49=[YOUR ACCESS KEY]|52=20141221-18:16:40.511|56=BTCC-FIX-SERVER|262=123|263=1|264=0|146=1|55=BTCCNY|267=13|269=0|269=1|269=2|269=3|269=4|269=5|269=6|269=7|269=8|269=9|269=A|269=B|269=C|10=221|8=FIX.4.4|9=197|35=V|34=70|49=[YOUR ACCESS KEY]|52=20141221-18:16:43.513|56=BTCC-FIX-SERVER|262=123|263=1|264=0|146=1|55=BTCCNY|267=13|269=0|269=1|269=2|269=3|269=4|269=5|269=6|269=7|269=8|269=9|269=A|269=B|269=C|10=218|8=FIX.4.4|9=197|35=V|34=71|49=[YOUR ACCESS KEY]|52=20141221-18:16:46.515|56=BTCC-FIX-SERVER|262=123|263=1|264=0|146=1|55=BTCCNY|267=13|269=0|269=1|269=2|269=3|269=4|269=5|269=6|269=7|269=8|269=9|269=A|269=B|269=C|10=224|8=FIX.4.4|9=197|35=V|34=72|49=[YOUR ACCESS KEY]|52=20141221-18:16:49.518|56=BTCC-FIX-SERVER|262=123|263=1|264=0|146=1|55=BTCCNY|267=13|269=0|269=1|269=2|269=3|269=4|269=5|269=6|269=7|269=8|269=9|269=A|269=B|269=C|10=231|8=FIX.4.4|9=197|35=V|34=73|49=[YOUR ACCESS KEY]|52=20141221-18:16:52.521|56=BTCC-FIX-SERVER|262=123|263=1|264=0|146=1|55=BTCCNY|267=13|269=0|269=1|269=2|269=3|269=4|269=5|269=6|269=7|269=8|269=9|269=A|269=B|269=C|10=220|8=FIX.4.4|9=197|35=V|34=74|49=[YOUR ACCESS KEY]|52=20141221-18:16:55.522|56=BTCC-FIX-SERVER|262=123|263=1|264=0|146=1|55=BTCCNY|267=13|269=0|269=1|269=2|269=3|269=4|269=5|269=6|269=7|269=8|269=9|269=A|269=B|269=C|10=225|8=FIX.4.4|9=197|35=V|34=75|49=[YOUR ACCESS KEY]|52=20141221-18:16:58.523|56=BTCC-FIX-SERVER|262=123|263=1|264=0|146=1|55=BTCCNY|267=13|269=0|269=1|269=2|269=3|269=4|269=5|269=6|269=7|269=8|269=9|269=A|269=B|269=C|10=230|8=FIX.4.4|9=197|35=V|34=76|49=[YOUR ACCESS KEY]|52=20141221-18:17:01.525|56=BTCC-FIX-SERVER|262=123|263=1|264=0|146=1|55=BTCCNY|267=13|269=0|269=1|269=2|269=3|269=4|269=5|269=6|269=7|269=8|269=9|269=A|269=B|269=C|10=222|8=FIX.4.4|9=197|35=V|34=77|49=[YOUR ACCESS KEY]|52=20141221-18:17:04.527|56=BTCC-FIX-SERVER|262=123|263=1|264=0|146=1|55=BTCCNY|267=13|269=0|269=1|269=2|269=3|269=4|269=5|269=6|269=7|269=8|269=9|269=A|269=B|269=C|10=228|8=FIX.4.4|9=197|35=V|34=78|49=[YOUR ACCESS KEY]|52=20141221-18:17:07.528|56=BTCC-FIX-SERVER|262=123|263=1|264=0|146=1|55=BTCCNY|267=13|269=0|269=1|269=2|269=3|269=4|269=5|269=6|269=7|269=8|269=9|269=A|269=B|269=C|10=233|8=FIX.4.4|9=197|35=V|34=79|49=[YOUR ACCESS KEY]|52=20141221-18:17:10.531|56=BTCC-FIX-SERVER|262=123|263=1|264=0|146=1|55=BTCCNY|267=13|269=0|269=1|269=2|269=3|269=4|269=5|269=6|269=7|269=8|269=9|269=A|269=B|269=C|10=222|8=FIX.4.4|9=197|35=V|34=80|49=[YOUR ACCESS KEY]|52=20141221-18:17:13.532|56=BTCC-FIX-SERVER|262=123|263=1|264=0|146=1|55=BTCCNY|267=13|269=0|269=1|269=2|269=3|269=4|269=5|269=6|269=7|269=8|269=9|269=A|269=B|269=C|10=218|8=FIX.4.4|9=197|35=V|34=81|49=[YOUR ACCESS KEY]|52=20141221-18:17:16.534|56=BTCC-FIX-SERVER|262=123|263=1|264=0|146=1|55=BTCCNY|267=13|269=0|269=1|269=2|269=3|269=4|269=5|269=6|269=7|269=8|269=9|269=A|269=B|269=C|10=224|8=FIX.4.4|9=197|35=V|34=82|49=[YOUR ACCESS KEY]|52=20141221-18:17:19.535|56=BTCC-FIX-SERVER|262=123|263=1|264=0|146=1|55=BTCCNY|267=13|269=0|269=1|269=2|269=3|269=4|269=5|269=6|269=7|269=8|269=9|269=A|269=B|269=C|10=229|8=FIX.4.4|9=197|35=V|34=83|49=[YOUR ACCESS KEY]|52=20141221-18:17:22.538|56=BTCC-FIX-SERVER|262=123|263=1|264=0|146=1|55=BTCCNY|267=13|269=0|269=1|269=2|269=3|269=4|269=5|269=6|269=7|269=8|269=9|269=A|269=B|269=C|10=227|8=FIX.4.4|9=197|35=V|34=84|49=[YOUR ACCESS KEY]|52=20141221-18:17:25.540|56=BTCC-FIX-SERVER|262=123|263=1|264=0|146=1|55=BTCCNY|267=13|269=0|269=1|269=2|269=3|269=4|269=5|269=6|269=7|269=8|269=9|269=A|269=B|269=C|10=224|8=FIX.4.4|9=197|35=V|34=85|49=[YOUR ACCESS KEY]|52=20141221-18:17:28.542|56=BTCC-FIX-SERVER|262=123|263=1|264=0|146=1|55=BTCCNY|267=13|269=0|269=1|269=2|269=3|269=4|269=5|269=6|269=7|269=8|269=9|269=A|269=B|269=C|10=230|8=FIX.4.4|9=197|35=V|34=86|49=[YOUR ACCESS KEY]|52=20141221-18:17:31.545|56=BTCC-FIX-SERVER|262=123|263=1|264=0|146=1|55=BTCCNY|267=13|269=0|269=1|269=2|269=3|269=4|269=5|269=6|269=7|269=8|269=9|269=A|269=B|269=C|10=228|8=FIX.4.4|9=197|35=V|34=87|49=[YOUR ACCESS KEY]|52=20141221-18:17:34.547|56=BTCC-FIX-SERVER|262=123|263=1|264=0|146=1|55=BTCCNY|267=13|269=0|269=1|269=2|269=3|269=4|269=5|269=6|269=7|269=8|269=9|269=A|269=B|269=C|10=234|8=FIX.4.4|9=197|35=V|34=88|49=[YOUR ACCESS KEY]|52=20141221-18:17:37.549|56=BTCC-FIX-SERVER|262=123|263=1|264=0|146=1|55=BTCCNY|267=13|269=0|269=1|269=2|269=3|269=4|269=5|269=6|269=7|269=8|269=9|269=A|269=B|269=C|10=240|8=FIX.4.4|9=197|35=V|34=89|49=[YOUR ACCESS KEY]|52=20141221-18:17:40.552|56=BTCC-FIX-SERVER|262=123|263=1|264=0|146=1|55=BTCCNY|267=13|269=0|269=1|269=2|269=3|269=4|269=5|269=6|269=7|269=8|269=9|269=A|269=B|269=C|10=229|8=FIX.4.4|9=197|35=V|34=90|49=[YOUR ACCESS KEY]|52=20141221-18:17:43.554|56=BTCC-FIX-SERVER|262=123|263=1|264=0|146=1|55=BTCCNY|267=13|269=0|269=1|269=2|269=3|269=4|269=5|269=6|269=7|269=8|269=9|269=A|269=B|269=C|10=226|8=FIX.4.4|9=197|35=V|34=91|49=[YOUR ACCESS KEY]|52=20141221-18:17:46.556|56=BTCC-FIX-SERVER|262=123|263=1|264=0|146=1|55=BTCCNY|267=13|269=0|269=1|269=2|269=3|269=4|269=5|269=6|269=7|269=8|269=9|269=A|269=B|269=C|10=232|8=FIX.4.4|9=197|35=V|34=92|49=[YOUR ACCESS KEY]|52=20141221-18:17:49.557|56=BTCC-FIX-SERVER|262=123|263=1|264=0|146=1|55=BTCCNY|267=13|269=0|269=1|269=2|269=3|269=4|269=5|269=6|269=7|269=8|269=9|269=A|269=B|269=C|10=237|8=FIX.4.4|9=197|35=V|34=93|49=[YOUR ACCESS KEY]|52=20141221-18:17:52.559|56=BTCC-FIX-SERVER|262=123|263=1|264=0|146=1|55=BTCCNY|267=13|269=0|269=1|269=2|269=3|269=4|269=5|269=6|269=7|269=8|269=9|269=A|269=B|269=C|10=234|8=FIX.4.4|9=197|35=V|34=94|49=[YOUR ACCESS KEY]|52=20141221-18:17:55.561|56=BTCC-FIX-SERVER|262=123|263=1|264=0|146=1|55=BTCCNY|267=13|269=0|269=1|269=2|269=3|269=4|269=5|269=6|269=7|269=8|269=9|269=A|269=B|269=C|10=231|8=FIX.4.4|9=197|35=V|34=95|49=[YOUR ACCESS KEY]|52=20141221-18:17:58.563|56=BTCC-FIX-SERVER|262=123|263=1|264=0|146=1|55=BTCCNY|267=13|269=0|269=1|269=2|269=3|269=4|269=5|269=6|269=7|269=8|269=9|269=A|269=B|269=C|10=237|8=FIX.4.4|9=197|35=V|34=96|49=[YOUR ACCESS KEY]|52=20141221-18:18:01.565|56=BTCC-FIX-SERVER|262=123|263=1|264=0|146=1|55=BTCCNY|267=13|269=0|269=1|269=2|269=3|269=4|269=5|269=6|269=7|269=8|269=9|269=A|269=B|269=C|10=229|